{
  "_format": "hh-sol-artifact-1",
  "contractName": "ERC721PresetMinterPauserAutoId",
  "sourceName": "src/solidity/contracts/openzeppelin/token/ERC721/presets/ERC721PresetMinterPauserAutoId.sol",
  "abi": [
    {
      "inputs": [
        {
          "internalType": "string",
          "name": "name",
          "type": "string"
        },
        {
          "internalType": "string",
          "name": "symbol",
          "type": "string"
        },
        {
          "internalType": "string",
          "name": "baseTokenURI",
          "type": "string"
        }
      ],
      "stateMutability": "nonpayable",
      "type": "constructor"
    },
    {
      "anonymous": false,
      "inputs": [
        {
          "indexed": true,
          "internalType": "address",
          "name": "owner",
          "type": "address"
        },
        {
          "indexed": true,
          "internalType": "address",
          "name": "approved",
          "type": "address"
        },
        {
          "indexed": true,
          "internalType": "uint256",
          "name": "tokenId",
          "type": "uint256"
        }
      ],
      "name": "Approval",
      "type": "event"
    },
    {
      "anonymous": false,
      "inputs": [
        {
          "indexed": true,
          "internalType": "address",
          "name": "owner",
          "type": "address"
        },
        {
          "indexed": true,
          "internalType": "address",
          "name": "operator",
          "type": "address"
        },
        {
          "indexed": false,
          "internalType": "bool",
          "name": "approved",
          "type": "bool"
        }
      ],
      "name": "ApprovalForAll",
      "type": "event"
    },
    {
      "anonymous": false,
      "inputs": [
        {
          "indexed": false,
          "internalType": "address",
          "name": "account",
          "type": "address"
        }
      ],
      "name": "Paused",
      "type": "event"
    },
    {
      "anonymous": false,
      "inputs": [
        {
          "indexed": true,
          "internalType": "bytes32",
          "name": "role",
          "type": "bytes32"
        },
        {
          "indexed": true,
          "internalType": "bytes32",
          "name": "previousAdminRole",
          "type": "bytes32"
        },
        {
          "indexed": true,
          "internalType": "bytes32",
          "name": "newAdminRole",
          "type": "bytes32"
        }
      ],
      "name": "RoleAdminChanged",
      "type": "event"
    },
    {
      "anonymous": false,
      "inputs": [
        {
          "indexed": true,
          "internalType": "bytes32",
          "name": "role",
          "type": "bytes32"
        },
        {
          "indexed": true,
          "internalType": "address",
          "name": "account",
          "type": "address"
        },
        {
          "indexed": true,
          "internalType": "address",
          "name": "sender",
          "type": "address"
        }
      ],
      "name": "RoleGranted",
      "type": "event"
    },
    {
      "anonymous": false,
      "inputs": [
        {
          "indexed": true,
          "internalType": "bytes32",
          "name": "role",
          "type": "bytes32"
        },
        {
          "indexed": true,
          "internalType": "address",
          "name": "account",
          "type": "address"
        },
        {
          "indexed": true,
          "internalType": "address",
          "name": "sender",
          "type": "address"
        }
      ],
      "name": "RoleRevoked",
      "type": "event"
    },
    {
      "anonymous": false,
      "inputs": [
        {
          "indexed": true,
          "internalType": "address",
          "name": "from",
          "type": "address"
        },
        {
          "indexed": true,
          "internalType": "address",
          "name": "to",
          "type": "address"
        },
        {
          "indexed": true,
          "internalType": "uint256",
          "name": "tokenId",
          "type": "uint256"
        }
      ],
      "name": "Transfer",
      "type": "event"
    },
    {
      "anonymous": false,
      "inputs": [
        {
          "indexed": false,
          "internalType": "address",
          "name": "account",
          "type": "address"
        }
      ],
      "name": "Unpaused",
      "type": "event"
    },
    {
      "inputs": [],
      "name": "DEFAULT_ADMIN_ROLE",
      "outputs": [
        {
          "internalType": "bytes32",
          "name": "",
          "type": "bytes32"
        }
      ],
      "stateMutability": "view",
      "type": "function"
    },
    {
      "inputs": [],
      "name": "MINTER_ROLE",
      "outputs": [
        {
          "internalType": "bytes32",
          "name": "",
          "type": "bytes32"
        }
      ],
      "stateMutability": "view",
      "type": "function"
    },
    {
      "inputs": [],
      "name": "PAUSER_ROLE",
      "outputs": [
        {
          "internalType": "bytes32",
          "name": "",
          "type": "bytes32"
        }
      ],
      "stateMutability": "view",
      "type": "function"
    },
    {
      "inputs": [
        {
          "internalType": "address",
          "name": "to",
          "type": "address"
        },
        {
          "internalType": "uint256",
          "name": "tokenId",
          "type": "uint256"
        }
      ],
      "name": "approve",
      "outputs": [],
      "stateMutability": "nonpayable",
      "type": "function"
    },
    {
      "inputs": [
        {
          "internalType": "address",
          "name": "owner",
          "type": "address"
        }
      ],
      "name": "balanceOf",
      "outputs": [
        {
          "internalType": "uint256",
          "name": "",
          "type": "uint256"
        }
      ],
      "stateMutability": "view",
      "type": "function"
    },
    {
      "inputs": [
        {
          "internalType": "uint256",
          "name": "tokenId",
          "type": "uint256"
        }
      ],
      "name": "burn",
      "outputs": [],
      "stateMutability": "nonpayable",
      "type": "function"
    },
    {
      "inputs": [
        {
          "internalType": "uint256",
          "name": "tokenId",
          "type": "uint256"
        }
      ],
      "name": "getApproved",
      "outputs": [
        {
          "internalType": "address",
          "name": "",
          "type": "address"
        }
      ],
      "stateMutability": "view",
      "type": "function"
    },
    {
      "inputs": [
        {
          "internalType": "bytes32",
          "name": "role",
          "type": "bytes32"
        }
      ],
      "name": "getRoleAdmin",
      "outputs": [
        {
          "internalType": "bytes32",
          "name": "",
          "type": "bytes32"
        }
      ],
      "stateMutability": "view",
      "type": "function"
    },
    {
      "inputs": [
        {
          "internalType": "bytes32",
          "name": "role",
          "type": "bytes32"
        },
        {
          "internalType": "uint256",
          "name": "index",
          "type": "uint256"
        }
      ],
      "name": "getRoleMember",
      "outputs": [
        {
          "internalType": "address",
          "name": "",
          "type": "address"
        }
      ],
      "stateMutability": "view",
      "type": "function"
    },
    {
      "inputs": [
        {
          "internalType": "bytes32",
          "name": "role",
          "type": "bytes32"
        }
      ],
      "name": "getRoleMemberCount",
      "outputs": [
        {
          "internalType": "uint256",
          "name": "",
          "type": "uint256"
        }
      ],
      "stateMutability": "view",
      "type": "function"
    },
    {
      "inputs": [
        {
          "internalType": "bytes32",
          "name": "role",
          "type": "bytes32"
        },
        {
          "internalType": "address",
          "name": "account",
          "type": "address"
        }
      ],
      "name": "grantRole",
      "outputs": [],
      "stateMutability": "nonpayable",
      "type": "function"
    },
    {
      "inputs": [
        {
          "internalType": "bytes32",
          "name": "role",
          "type": "bytes32"
        },
        {
          "internalType": "address",
          "name": "account",
          "type": "address"
        }
      ],
      "name": "hasRole",
      "outputs": [
        {
          "internalType": "bool",
          "name": "",
          "type": "bool"
        }
      ],
      "stateMutability": "view",
      "type": "function"
    },
    {
      "inputs": [
        {
          "internalType": "address",
          "name": "owner",
          "type": "address"
        },
        {
          "internalType": "address",
          "name": "operator",
          "type": "address"
        }
      ],
      "name": "isApprovedForAll",
      "outputs": [
        {
          "internalType": "bool",
          "name": "",
          "type": "bool"
        }
      ],
      "stateMutability": "view",
      "type": "function"
    },
    {
      "inputs": [
        {
          "internalType": "address",
          "name": "to",
          "type": "address"
        }
      ],
      "name": "mint",
      "outputs": [],
      "stateMutability": "nonpayable",
      "type": "function"
    },
    {
      "inputs": [],
      "name": "name",
      "outputs": [
        {
          "internalType": "string",
          "name": "",
          "type": "string"
        }
      ],
      "stateMutability": "view",
      "type": "function"
    },
    {
      "inputs": [
        {
          "internalType": "uint256",
          "name": "tokenId",
          "type": "uint256"
        }
      ],
      "name": "ownerOf",
      "outputs": [
        {
          "internalType": "address",
          "name": "",
          "type": "address"
        }
      ],
      "stateMutability": "view",
      "type": "function"
    },
    {
      "inputs": [],
      "name": "pause",
      "outputs": [],
      "stateMutability": "nonpayable",
      "type": "function"
    },
    {
      "inputs": [],
      "name": "paused",
      "outputs": [
        {
          "internalType": "bool",
          "name": "",
          "type": "bool"
        }
      ],
      "stateMutability": "view",
      "type": "function"
    },
    {
      "inputs": [
        {
          "internalType": "bytes32",
          "name": "role",
          "type": "bytes32"
        },
        {
          "internalType": "address",
          "name": "account",
          "type": "address"
        }
      ],
      "name": "renounceRole",
      "outputs": [],
      "stateMutability": "nonpayable",
      "type": "function"
    },
    {
      "inputs": [
        {
          "internalType": "bytes32",
          "name": "role",
          "type": "bytes32"
        },
        {
          "internalType": "address",
          "name": "account",
          "type": "address"
        }
      ],
      "name": "revokeRole",
      "outputs": [],
      "stateMutability": "nonpayable",
      "type": "function"
    },
    {
      "inputs": [
        {
          "internalType": "address",
          "name": "from",
          "type": "address"
        },
        {
          "internalType": "address",
          "name": "to",
          "type": "address"
        },
        {
          "internalType": "uint256",
          "name": "tokenId",
          "type": "uint256"
        }
      ],
      "name": "safeTransferFrom",
      "outputs": [],
      "stateMutability": "nonpayable",
      "type": "function"
    },
    {
      "inputs": [
        {
          "internalType": "address",
          "name": "from",
          "type": "address"
        },
        {
          "internalType": "address",
          "name": "to",
          "type": "address"
        },
        {
          "internalType": "uint256",
          "name": "tokenId",
          "type": "uint256"
        },
        {
          "internalType": "bytes",
          "name": "_data",
          "type": "bytes"
        }
      ],
      "name": "safeTransferFrom",
      "outputs": [],
      "stateMutability": "nonpayable",
      "type": "function"
    },
    {
      "inputs": [
        {
          "internalType": "address",
          "name": "operator",
          "type": "address"
        },
        {
          "internalType": "bool",
          "name": "approved",
          "type": "bool"
        }
      ],
      "name": "setApprovalForAll",
      "outputs": [],
      "stateMutability": "nonpayable",
      "type": "function"
    },
    {
      "inputs": [
        {
          "internalType": "bytes4",
          "name": "interfaceId",
          "type": "bytes4"
        }
      ],
      "name": "supportsInterface",
      "outputs": [
        {
          "internalType": "bool",
          "name": "",
          "type": "bool"
        }
      ],
      "stateMutability": "view",
      "type": "function"
    },
    {
      "inputs": [],
      "name": "symbol",
      "outputs": [
        {
          "internalType": "string",
          "name": "",
          "type": "string"
        }
      ],
      "stateMutability": "view",
      "type": "function"
    },
    {
      "inputs": [
        {
          "internalType": "uint256",
          "name": "index",
          "type": "uint256"
        }
      ],
      "name": "tokenByIndex",
      "outputs": [
        {
          "internalType": "uint256",
          "name": "",
          "type": "uint256"
        }
      ],
      "stateMutability": "view",
      "type": "function"
    },
    {
      "inputs": [
        {
          "internalType": "address",
          "name": "owner",
          "type": "address"
        },
        {
          "internalType": "uint256",
          "name": "index",
          "type": "uint256"
        }
      ],
      "name": "tokenOfOwnerByIndex",
      "outputs": [
        {
          "internalType": "uint256",
          "name": "",
          "type": "uint256"
        }
      ],
      "stateMutability": "view",
      "type": "function"
    },
    {
      "inputs": [
        {
          "internalType": "uint256",
          "name": "tokenId",
          "type": "uint256"
        }
      ],
      "name": "tokenURI",
      "outputs": [
        {
          "internalType": "string",
          "name": "",
          "type": "string"
        }
      ],
      "stateMutability": "view",
      "type": "function"
    },
    {
      "inputs": [],
      "name": "totalSupply",
      "outputs": [
        {
          "internalType": "uint256",
          "name": "",
          "type": "uint256"
        }
      ],
      "stateMutability": "view",
      "type": "function"
    },
    {
      "inputs": [
        {
          "internalType": "address",
          "name": "from",
          "type": "address"
        },
        {
          "internalType": "address",
          "name": "to",
          "type": "address"
        },
        {
          "internalType": "uint256",
          "name": "tokenId",
          "type": "uint256"
        }
      ],
      "name": "transferFrom",
      "outputs": [],
      "stateMutability": "nonpayable",
      "type": "function"
    },
    {
      "inputs": [],
      "name": "unpause",
      "outputs": [],
      "stateMutability": "nonpayable",
      "type": "function"
    }
  ],
  "bytecode": "0x60806040523480156200001157600080fd5b50604051620050c2380380620050c2833981810160405281019062000037919062000508565b8282816002908051906020019062000051929190620003e6565b5080600390805190602001906200006a929190620003e6565b5050506000600c60006101000a81548160ff02191690831515021790555080600e9080519060200190620000a0929190620003e6565b50620000c56000801b620000b96200015060201b60201c565b6200015860201b60201c565b620001067f9f2df0fed2c77648de5860a4cc508cd0818c85b8b8a1ab4ceeef8d981c8956a6620000fa6200015060201b60201c565b6200015860201b60201c565b620001477f65d7a28e3265b37a6474929f336521b332c1681b933f6cb9f3376673440d862a6200013b6200015060201b60201c565b6200015860201b60201c565b50505062000719565b600033905090565b6200016f8282620001a060201b6200119f1760201c565b6200019b8160016000858152602001908152602001600020620001b660201b620011ad1790919060201c565b505050565b620001b28282620001ee60201b60201c565b5050565b6000620001e6836000018373ffffffffffffffffffffffffffffffffffffffff1660001b620002df60201b60201c565b905092915050565b6200020082826200035960201b60201c565b620002db57600160008084815260200190815260200160002060000160008373ffffffffffffffffffffffffffffffffffffffff1673ffffffffffffffffffffffffffffffffffffffff16815260200190815260200160002060006101000a81548160ff021916908315150217905550620002806200015060201b60201c565b73ffffffffffffffffffffffffffffffffffffffff168173ffffffffffffffffffffffffffffffffffffffff16837f2f8788117e7eff1d82e926ec794901d17c78024a50270940304540a733656f0d60405160405180910390a45b5050565b6000620002f38383620003c360201b60201c565b6200034e57826000018290806001815401808255809150506001900390600052602060002001600090919091909150558260000180549050836001016000848152602001908152602001600020819055506001905062000353565b600090505b92915050565b600080600084815260200190815260200160002060000160008373ffffffffffffffffffffffffffffffffffffffff1673ffffffffffffffffffffffffffffffffffffffff16815260200190815260200160002060009054906101000a900460ff16905092915050565b600080836001016000848152602001908152602001600020541415905092915050565b828054620003f4906200063e565b90600052602060002090601f01602090048101928262000418576000855562000464565b82601f106200043357805160ff191683800117855562000464565b8280016001018555821562000464579182015b828111156200046357825182559160200191906001019062000446565b5b50905062000473919062000477565b5090565b5b808211156200049257600081600090555060010162000478565b5090565b6000620004ad620004a784620005d2565b620005a9565b905082815260208101848484011115620004c657600080fd5b620004d384828562000608565b509392505050565b600082601f830112620004ed57600080fd5b8151620004ff84826020860162000496565b91505092915050565b6000806000606084860312156200051e57600080fd5b600084015167ffffffffffffffff8111156200053957600080fd5b6200054786828701620004db565b935050602084015167ffffffffffffffff8111156200056557600080fd5b6200057386828701620004db565b925050604084015167ffffffffffffffff8111156200059157600080fd5b6200059f86828701620004db565b9150509250925092565b6000620005b5620005c8565b9050620005c3828262000674565b919050565b6000604051905090565b600067ffffffffffffffff821115620005f057620005ef620006d9565b5b620005fb8262000708565b9050602081019050919050565b60005b83811015620006285780820151818401526020810190506200060b565b8381111562000638576000848401525b50505050565b600060028204905060018216806200065757607f821691505b602082108114156200066e576200066d620006aa565b5b50919050565b6200067f8262000708565b810181811067ffffffffffffffff82111715620006a157620006a0620006d9565b5b80604052505050565b7f4e487b7100000000000000000000000000000000000000000000000000000000600052602260045260246000fd5b7f4e487b7100000000000000000000000000000000000000000000000000000000600052604160045260246000fd5b6000601f19601f8301169050919050565b61499980620007296000396000f3fe608060405234801561001057600080fd5b50600436106101e55760003560e01c80636352211e1161010f578063a22cb465116100a2578063d539139311610071578063d5391393146105a0578063d547741f146105be578063e63ab1e9146105da578063e985e9c5146105f8576101e5565b8063a22cb46514610508578063b88d4fde14610524578063c87b56dd14610540578063ca15c87314610570576101e5565b80639010d07c116100de5780639010d07c1461046c57806391d148541461049c57806395d89b41146104cc578063a217fddf146104ea576101e5565b80636352211e146103e65780636a6278421461041657806370a08231146104325780638456cb5914610462576101e5565b80632f2ff15d1161018757806342842e0e1161015657806342842e0e1461036057806342966c681461037c5780634f6ccce7146103985780635c975abb146103c8576101e5565b80632f2ff15d146102ee5780632f745c591461030a57806336568abe1461033a5780633f4ba83a14610356576101e5565b8063095ea7b3116101c3578063095ea7b31461026857806318160ddd1461028457806323b872dd146102a2578063248a9ca3146102be576101e5565b806301ffc9a7146101ea57806306fdde031461021a578063081812fc14610238575b600080fd5b61020460048036038101906101ff9190613426565b610628565b60405161021191906139f6565b60405180910390f35b61022261063a565b60405161022f9190613a2c565b60405180910390f35b610252600480360381019061024d9190613478565b6106cc565b60405161025f919061398f565b60405180910390f35b610282600480360381019061027d9190613349565b610751565b005b61028c610869565b6040516102999190613d6e565b60405180910390f35b6102bc60048036038101906102b79190613243565b610876565b005b6102d860048036038101906102d39190613385565b6108d6565b6040516102e59190613a11565b60405180910390f35b610308600480360381019061030391906133ae565b6108f5565b005b610324600480360381019061031f9190613349565b610929565b6040516103319190613d6e565b60405180910390f35b610354600480360381019061034f91906133ae565b6109ce565b005b61035e610a02565b005b61037a60048036038101906103759190613243565b610a7c565b005b61039660048036038101906103919190613478565b610a9c565b005b6103b260048036038101906103ad9190613478565b610af8565b6040516103bf9190613d6e565b60405180910390f35b6103d0610b8f565b6040516103dd91906139f6565b60405180910390f35b61040060048036038101906103fb9190613478565b610ba6565b60405161040d919061398f565b60405180910390f35b610430600480360381019061042b91906131de565b610c58565b005b61044c600480360381019061044791906131de565b610ce8565b6040516104599190613d6e565b60405180910390f35b61046a610da0565b005b610486600480360381019061048191906133ea565b610e1a565b604051610493919061398f565b60405180910390f35b6104b660048036038101906104b191906133ae565b610e49565b6040516104c391906139f6565b60405180910390f35b6104d4610eb3565b6040516104e19190613a2c565b60405180910390f35b6104f2610f45565b6040516104ff9190613a11565b60405180910390f35b610522600480360381019061051d919061330d565b610f4c565b005b61053e60048036038101906105399190613292565b610f62565b005b61055a60048036038101906105559190613478565b610fc4565b6040516105679190613a2c565b60405180910390f35b61058a60048036038101906105859190613385565b61106b565b6040516105979190613d6e565b60405180910390f35b6105a861108f565b6040516105b59190613a11565b60405180910390f35b6105d860048036038101906105d391906133ae565b6110b3565b005b6105e26110e7565b6040516105ef9190613a11565b60405180910390f35b610612600480360381019061060d9190613207565b61110b565b60405161061f91906139f6565b60405180910390f35b6000610633826111dd565b9050919050565b60606002805461064990614021565b80601f016020809104026020016040519081016040528092919081815260200182805461067590614021565b80156106c25780601f10610697576101008083540402835291602001916106c2565b820191906000526020600020905b8154815290600101906020018083116106a557829003601f168201915b5050505050905090565b60006106d782611257565b610716576040517f08c379a000000000000000000000000000000000000000000000000000000000815260040161070d90613c2e565b60405180910390fd5b6006600083815260200190815260200160002060009054906101000a900473ffffffffffffffffffffffffffffffffffffffff169050919050565b600061075c82610ba6565b90508073ffffffffffffffffffffffffffffffffffffffff168373ffffffffffffffffffffffffffffffffffffffff1614156107cd576040517f08c379a00000000000000000000000000000000000000000000000000000000081526004016107c490613c8e565b60405180910390fd5b8073ffffffffffffffffffffffffffffffffffffffff166107ec6112c3565b73ffffffffffffffffffffffffffffffffffffffff16148061081b575061081a816108156112c3565b61110b565b5b61085a576040517f08c379a000000000000000000000000000000000000000000000000000000000815260040161085190613bae565b60405180910390fd5b61086483836112cb565b505050565b6000600a80549050905090565b6108876108816112c3565b82611384565b6108c6576040517f08c379a00000000000000000000000000000000000000000000000000000000081526004016108bd90613cae565b60405180910390fd5b6108d1838383611462565b505050565b6000806000838152602001908152602001600020600101549050919050565b6108ff82826116be565b61092481600160008581526020019081526020016000206111ad90919063ffffffff16565b505050565b600061093483610ce8565b8210610975576040517f08c379a000000000000000000000000000000000000000000000000000000000815260040161096c90613aae565b60405180910390fd5b600860008473ffffffffffffffffffffffffffffffffffffffff1673ffffffffffffffffffffffffffffffffffffffff168152602001908152602001600020600083815260200190815260200160002054905092915050565b6109d882826116e7565b6109fd816001600085815260200190815260200160002061176a90919063ffffffff16565b505050565b610a337f65d7a28e3265b37a6474929f336521b332c1681b933f6cb9f3376673440d862a610a2e6112c3565b610e49565b610a72576040517f08c379a0000000000000000000000000000000000000000000000000000000008152600401610a6990613d2e565b60405180910390fd5b610a7a61179a565b565b610a9783838360405180602001604052806000815250610f62565b505050565b610aad610aa76112c3565b82611384565b610aec576040517f08c379a0000000000000000000000000000000000000000000000000000000008152600401610ae390613d0e565b60405180910390fd5b610af58161183c565b50565b6000610b02610869565b8210610b43576040517f08c379a0000000000000000000000000000000000000000000000000000000008152600401610b3a90613cce565b60405180910390fd5b600a8281548110610b7d577f4e487b7100000000000000000000000000000000000000000000000000000000600052603260045260246000fd5b90600052602060002001549050919050565b6000600c60009054906101000a900460ff16905090565b6000806004600084815260200190815260200160002060009054906101000a900473ffffffffffffffffffffffffffffffffffffffff169050600073ffffffffffffffffffffffffffffffffffffffff168173ffffffffffffffffffffffffffffffffffffffff161415610c4f576040517f08c379a0000000000000000000000000000000000000000000000000000000008152600401610c4690613bee565b60405180910390fd5b80915050919050565b610c897f9f2df0fed2c77648de5860a4cc508cd0818c85b8b8a1ab4ceeef8d981c8956a6610c846112c3565b610e49565b610cc8576040517f08c379a0000000000000000000000000000000000000000000000000000000008152600401610cbf90613cee565b60405180910390fd5b610cdb81610cd6600d61194d565b61195b565b610ce5600d611b29565b50565b60008073ffffffffffffffffffffffffffffffffffffffff168273ffffffffffffffffffffffffffffffffffffffff161415610d59576040517f08c379a0000000000000000000000000000000000000000000000000000000008152600401610d5090613bce565b60405180910390fd5b600560008373ffffffffffffffffffffffffffffffffffffffff1673ffffffffffffffffffffffffffffffffffffffff168152602001908152602001600020549050919050565b610dd17f65d7a28e3265b37a6474929f336521b332c1681b933f6cb9f3376673440d862a610dcc6112c3565b610e49565b610e10576040517f08c379a0000000000000000000000000000000000000000000000000000000008152600401610e0790613b0e565b60405180910390fd5b610e18611b3f565b565b6000610e418260016000868152602001908152602001600020611be290919063ffffffff16565b905092915050565b600080600084815260200190815260200160002060000160008373ffffffffffffffffffffffffffffffffffffffff1673ffffffffffffffffffffffffffffffffffffffff16815260200190815260200160002060009054906101000a900460ff16905092915050565b606060038054610ec290614021565b80601f0160208091040260200160405190810160405280929190818152602001828054610eee90614021565b8015610f3b5780601f10610f1057610100808354040283529160200191610f3b565b820191906000526020600020905b815481529060010190602001808311610f1e57829003601f168201915b5050505050905090565b6000801b81565b610f5e610f576112c3565b8383611bfc565b5050565b610f73610f6d6112c3565b83611384565b610fb2576040517f08c379a0000000000000000000000000000000000000000000000000000000008152600401610fa990613cae565b60405180910390fd5b610fbe84848484611d69565b50505050565b6060610fcf82611257565b61100e576040517f08c379a000000000000000000000000000000000000000000000000000000000815260040161100590613c6e565b60405180910390fd5b6000611018611dc5565b905060008151116110385760405180602001604052806000815250611063565b8061104284611e57565b604051602001611053929190613931565b6040516020818303038152906040525b915050919050565b600061108860016000848152602001908152602001600020612004565b9050919050565b7f9f2df0fed2c77648de5860a4cc508cd0818c85b8b8a1ab4ceeef8d981c8956a681565b6110bd8282612019565b6110e2816001600085815260200190815260200160002061176a90919063ffffffff16565b505050565b7f65d7a28e3265b37a6474929f336521b332c1681b933f6cb9f3376673440d862a81565b6000600760008473ffffffffffffffffffffffffffffffffffffffff1673ffffffffffffffffffffffffffffffffffffffff16815260200190815260200160002060008373ffffffffffffffffffffffffffffffffffffffff1673ffffffffffffffffffffffffffffffffffffffff16815260200190815260200160002060009054906101000a900460ff16905092915050565b6111a98282612042565b5050565b60006111d5836000018373ffffffffffffffffffffffffffffffffffffffff1660001b612122565b905092915050565b60007f780e9d63000000000000000000000000000000000000000000000000000000007bffffffffffffffffffffffffffffffffffffffffffffffffffffffff1916827bffffffffffffffffffffffffffffffffffffffffffffffffffffffff19161480611250575061124f82612192565b5b9050919050565b60008073ffffffffffffffffffffffffffffffffffffffff166004600084815260200190815260200160002060009054906101000a900473ffffffffffffffffffffffffffffffffffffffff1673ffffffffffffffffffffffffffffffffffffffff1614159050919050565b600033905090565b816006600083815260200190815260200160002060006101000a81548173ffffffffffffffffffffffffffffffffffffffff021916908373ffffffffffffffffffffffffffffffffffffffff160217905550808273ffffffffffffffffffffffffffffffffffffffff1661133e83610ba6565b73ffffffffffffffffffffffffffffffffffffffff167f8c5be1e5ebec7d5bd14f71427d1e84f3dd0314c0f7b2291e5b200ac8c7c3b92560405160405180910390a45050565b600061138f82611257565b6113ce576040517f08c379a00000000000000000000000000000000000000000000000000000000081526004016113c590613b6e565b60405180910390fd5b60006113d983610ba6565b90508073ffffffffffffffffffffffffffffffffffffffff168473ffffffffffffffffffffffffffffffffffffffff16148061144857508373ffffffffffffffffffffffffffffffffffffffff16611430846106cc565b73ffffffffffffffffffffffffffffffffffffffff16145b806114595750611458818561110b565b5b91505092915050565b8273ffffffffffffffffffffffffffffffffffffffff1661148282610ba6565b73ffffffffffffffffffffffffffffffffffffffff16146114d8576040517f08c379a00000000000000000000000000000000000000000000000000000000081526004016114cf90613c4e565b60405180910390fd5b600073ffffffffffffffffffffffffffffffffffffffff168273ffffffffffffffffffffffffffffffffffffffff161415611548576040517f08c379a000000000000000000000000000000000000000000000000000000000815260040161153f90613b2e565b60405180910390fd5b611553838383612274565b61155e6000826112cb565b6001600560008573ffffffffffffffffffffffffffffffffffffffff1673ffffffffffffffffffffffffffffffffffffffff16815260200190815260200160002060008282546115ae9190613f03565b925050819055506001600560008473ffffffffffffffffffffffffffffffffffffffff1673ffffffffffffffffffffffffffffffffffffffff16815260200190815260200160002060008282546116059190613e22565b92505081905550816004600083815260200190815260200160002060006101000a81548173ffffffffffffffffffffffffffffffffffffffff021916908373ffffffffffffffffffffffffffffffffffffffff160217905550808273ffffffffffffffffffffffffffffffffffffffff168473ffffffffffffffffffffffffffffffffffffffff167fddf252ad1be2c89b69c2b068fc378daa952ba7f163c4a11628f55a4df523b3ef60405160405180910390a4505050565b6116c7826108d6565b6116d8816116d36112c3565b612284565b6116e28383612042565b505050565b6116ef6112c3565b73ffffffffffffffffffffffffffffffffffffffff168173ffffffffffffffffffffffffffffffffffffffff161461175c576040517f08c379a000000000000000000000000000000000000000000000000000000000815260040161175390613d4e565b60405180910390fd5b6117668282612321565b5050565b6000611792836000018373ffffffffffffffffffffffffffffffffffffffff1660001b612402565b905092915050565b6117a2610b8f565b6117e1576040517f08c379a00000000000000000000000000000000000000000000000000000000081526004016117d890613a8e565b60405180910390fd5b6000600c60006101000a81548160ff0219169083151502179055507f5db9ee0a495bf2e6ff9c91a7834c1ba4fdd244a5e8aa4e537bd38aeae4b073aa6118256112c3565b604051611832919061398f565b60405180910390a1565b600061184782610ba6565b905061185581600084612274565b6118606000836112cb565b6001600560008373ffffffffffffffffffffffffffffffffffffffff1673ffffffffffffffffffffffffffffffffffffffff16815260200190815260200160002060008282546118b09190613f03565b925050819055506004600083815260200190815260200160002060006101000a81549073ffffffffffffffffffffffffffffffffffffffff021916905581600073ffffffffffffffffffffffffffffffffffffffff168273ffffffffffffffffffffffffffffffffffffffff167fddf252ad1be2c89b69c2b068fc378daa952ba7f163c4a11628f55a4df523b3ef60405160405180910390a45050565b600081600001549050919050565b600073ffffffffffffffffffffffffffffffffffffffff168273ffffffffffffffffffffffffffffffffffffffff1614156119cb576040517f08c379a00000000000000000000000000000000000000000000000000000000081526004016119c290613c0e565b60405180910390fd5b6119d481611257565b15611a14576040517f08c379a0000000000000000000000000000000000000000000000000000000008152600401611a0b90613aee565b60405180910390fd5b611a2060008383612274565b6001600560008473ffffffffffffffffffffffffffffffffffffffff1673ffffffffffffffffffffffffffffffffffffffff1681526020019081526020016000206000828254611a709190613e22565b92505081905550816004600083815260200190815260200160002060006101000a81548173ffffffffffffffffffffffffffffffffffffffff021916908373ffffffffffffffffffffffffffffffffffffffff160217905550808273ffffffffffffffffffffffffffffffffffffffff16600073ffffffffffffffffffffffffffffffffffffffff167fddf252ad1be2c89b69c2b068fc378daa952ba7f163c4a11628f55a4df523b3ef60405160405180910390a45050565b6001816000016000828254019250508190555050565b611b47610b8f565b15611b87576040517f08c379a0000000000000000000000000000000000000000000000000000000008152600401611b7e90613b8e565b60405180910390fd5b6001600c60006101000a81548160ff0219169083151502179055507f62e78cea01bee320cd4e420270b5ea74000d11b0c9f74754ebdbfc544b05a258611bcb6112c3565b604051611bd8919061398f565b60405180910390a1565b6000611bf18360000183612588565b60001c905092915050565b8173ffffffffffffffffffffffffffffffffffffffff168373ffffffffffffffffffffffffffffffffffffffff161415611c6b576040517f08c379a0000000000000000000000000000000000000000000000000000000008152600401611c6290613b4e565b60405180910390fd5b80600760008573ffffffffffffffffffffffffffffffffffffffff1673ffffffffffffffffffffffffffffffffffffffff16815260200190815260200160002060008473ffffffffffffffffffffffffffffffffffffffff1673ffffffffffffffffffffffffffffffffffffffff16815260200190815260200160002060006101000a81548160ff0219169083151502179055508173ffffffffffffffffffffffffffffffffffffffff168373ffffffffffffffffffffffffffffffffffffffff167f17307eab39ab6107e8899845ad3d59bd9653f200f220920489ca2b5937696c3183604051611d5c91906139f6565b60405180910390a3505050565b611d74848484611462565b611d80848484846125d9565b611dbf576040517f08c379a0000000000000000000000000000000000000000000000000000000008152600401611db690613ace565b60405180910390fd5b50505050565b6060600e8054611dd490614021565b80601f0160208091040260200160405190810160405280929190818152602001828054611e0090614021565b8015611e4d5780601f10611e2257610100808354040283529160200191611e4d565b820191906000526020600020905b815481529060010190602001808311611e3057829003601f168201915b5050505050905090565b60606000821415611e9f576040518060400160405280600181526020017f30000000000000000000000000000000000000000000000000000000000000008152509050611fff565b600082905060005b60008214611ed1578080611eba90614084565b915050600a82611eca9190613e78565b9150611ea7565b60008167ffffffffffffffff811115611f13577f4e487b7100000000000000000000000000000000000000000000000000000000600052604160045260246000fd5b6040519080825280601f01601f191660200182016040528015611f455781602001600182028036833780820191505090505b5090505b60008514611ff857600182611f5e9190613f03565b9150600a85611f6d91906140cd565b6030611f799190613e22565b60f81b818381518110611fb5577f4e487b7100000000000000000000000000000000000000000000000000000000600052603260045260246000fd5b60200101907effffffffffffffffffffffffffffffffffffffffffffffffffffffffffffff1916908160001a905350600a85611ff19190613e78565b9450611f49565b8093505050505b919050565b600061201282600001612770565b9050919050565b612022826108d6565b6120338161202e6112c3565b612284565b61203d8383612321565b505050565b61204c8282610e49565b61211e57600160008084815260200190815260200160002060000160008373ffffffffffffffffffffffffffffffffffffffff1673ffffffffffffffffffffffffffffffffffffffff16815260200190815260200160002060006101000a81548160ff0219169083151502179055506120c36112c3565b73ffffffffffffffffffffffffffffffffffffffff168173ffffffffffffffffffffffffffffffffffffffff16837f2f8788117e7eff1d82e926ec794901d17c78024a50270940304540a733656f0d60405160405180910390a45b5050565b600061212e8383612781565b61218757826000018290806001815401808255809150506001900390600052602060002001600090919091909150558260000180549050836001016000848152602001908152602001600020819055506001905061218c565b600090505b92915050565b60007f80ac58cd000000000000000000000000000000000000000000000000000000007bffffffffffffffffffffffffffffffffffffffffffffffffffffffff1916827bffffffffffffffffffffffffffffffffffffffffffffffffffffffff1916148061225d57507f5b5e139f000000000000000000000000000000000000000000000000000000007bffffffffffffffffffffffffffffffffffffffffffffffffffffffff1916827bffffffffffffffffffffffffffffffffffffffffffffffffffffffff1916145b8061226d575061226c826127a4565b5b9050919050565b61227f83838361281e565b505050565b61228e8282610e49565b61231d576122b38173ffffffffffffffffffffffffffffffffffffffff166014612876565b6122c18360001c6020612876565b6040516020016122d2929190613955565b6040516020818303038152906040526040517f08c379a00000000000000000000000000000000000000000000000000000000081526004016123149190613a2c565b60405180910390fd5b5050565b61232b8282610e49565b156123fe57600080600084815260200190815260200160002060000160008373ffffffffffffffffffffffffffffffffffffffff1673ffffffffffffffffffffffffffffffffffffffff16815260200190815260200160002060006101000a81548160ff0219169083151502179055506123a36112c3565b73ffffffffffffffffffffffffffffffffffffffff168173ffffffffffffffffffffffffffffffffffffffff16837ff6391f5c32d9c69d2a47ea670b442974b53935d1edc7fd64eb21e047a839171b60405160405180910390a45b5050565b6000808360010160008481526020019081526020016000205490506000811461257c5760006001826124349190613f03565b905060006001866000018054905061244c9190613f03565b9050818114612507576000866000018281548110612493577f4e487b7100000000000000000000000000000000000000000000000000000000600052603260045260246000fd5b90600052602060002001549050808760000184815481106124dd577f4e487b7100000000000000000000000000000000000000000000000000000000600052603260045260246000fd5b90600052602060002001819055508387600101600083815260200190815260200160002081905550505b85600001805480612541577f4e487b7100000000000000000000000000000000000000000000000000000000600052603160045260246000fd5b600190038181906000526020600020016000905590558560010160008681526020019081526020016000206000905560019350505050612582565b60009150505b92915050565b60008260000182815481106125c6577f4e487b7100000000000000000000000000000000000000000000000000000000600052603260045260246000fd5b9060005260206000200154905092915050565b60006125fa8473ffffffffffffffffffffffffffffffffffffffff16612b70565b15612763578373ffffffffffffffffffffffffffffffffffffffff1663150b7a026126236112c3565b8786866040518563ffffffff1660e01b815260040161264594939291906139aa565b602060405180830381600087803b15801561265f57600080fd5b505af192505050801561269057506040513d601f19601f8201168201806040525081019061268d919061344f565b60015b612713573d80600081146126c0576040519150601f19603f3d011682016040523d82523d6000602084013e6126c5565b606091505b5060008151141561270b576040517f08c379a000000000000000000000000000000000000000000000000000000000815260040161270290613ace565b60405180910390fd5b805181602001fd5b63150b7a0260e01b7bffffffffffffffffffffffffffffffffffffffffffffffffffffffff1916817bffffffffffffffffffffffffffffffffffffffffffffffffffffffff191614915050612768565b600190505b949350505050565b600081600001805490509050919050565b600080836001016000848152602001908152602001600020541415905092915050565b60007f5a05180f000000000000000000000000000000000000000000000000000000007bffffffffffffffffffffffffffffffffffffffffffffffffffffffff1916827bffffffffffffffffffffffffffffffffffffffffffffffffffffffff19161480612817575061281682612b83565b5b9050919050565b612829838383612bfd565b612831610b8f565b15612871576040517f08c379a000000000000000000000000000000000000000000000000000000000815260040161286890613a6e565b60405180910390fd5b505050565b6060600060028360026128899190613ea9565b6128939190613e22565b67ffffffffffffffff8111156128d2577f4e487b7100000000000000000000000000000000000000000000000000000000600052604160045260246000fd5b6040519080825280601f01601f1916602001820160405280156129045781602001600182028036833780820191505090505b5090507f300000000000000000000000000000000000000000000000000000000000000081600081518110612962577f4e487b7100000000000000000000000000000000000000000000000000000000600052603260045260246000fd5b60200101907effffffffffffffffffffffffffffffffffffffffffffffffffffffffffffff1916908160001a9053507f7800000000000000000000000000000000000000000000000000000000000000816001815181106129ec577f4e487b7100000000000000000000000000000000000000000000000000000000600052603260045260246000fd5b60200101907effffffffffffffffffffffffffffffffffffffffffffffffffffffffffffff1916908160001a90535060006001846002612a2c9190613ea9565b612a369190613e22565b90505b6001811115612b22577f3031323334353637383961626364656600000000000000000000000000000000600f861660108110612a9e577f4e487b7100000000000000000000000000000000000000000000000000000000600052603260045260246000fd5b1a60f81b828281518110612adb577f4e487b7100000000000000000000000000000000000000000000000000000000600052603260045260246000fd5b60200101907effffffffffffffffffffffffffffffffffffffffffffffffffffffffffffff1916908160001a905350600485901c945080612b1b90613ff7565b9050612a39565b5060008414612b66576040517f08c379a0000000000000000000000000000000000000000000000000000000008152600401612b5d90613a4e565b60405180910390fd5b8091505092915050565b600080823b905060008111915050919050565b60007f7965db0b000000000000000000000000000000000000000000000000000000007bffffffffffffffffffffffffffffffffffffffffffffffffffffffff1916827bffffffffffffffffffffffffffffffffffffffffffffffffffffffff19161480612bf65750612bf582612d11565b5b9050919050565b612c08838383612d7b565b600073ffffffffffffffffffffffffffffffffffffffff168373ffffffffffffffffffffffffffffffffffffffff161415612c4b57612c4681612d80565b612c8a565b8173ffffffffffffffffffffffffffffffffffffffff168373ffffffffffffffffffffffffffffffffffffffff1614612c8957612c888382612dc9565b5b5b600073ffffffffffffffffffffffffffffffffffffffff168273ffffffffffffffffffffffffffffffffffffffff161415612ccd57612cc881612f36565b612d0c565b8273ffffffffffffffffffffffffffffffffffffffff168273ffffffffffffffffffffffffffffffffffffffff1614612d0b57612d0a8282613079565b5b5b505050565b60007f01ffc9a7000000000000000000000000000000000000000000000000000000007bffffffffffffffffffffffffffffffffffffffffffffffffffffffff1916827bffffffffffffffffffffffffffffffffffffffffffffffffffffffff1916149050919050565b505050565b600a80549050600b600083815260200190815260200160002081905550600a81908060018154018082558091505060019003906000526020600020016000909190919091505550565b60006001612dd684610ce8565b612de09190613f03565b9050600060096000848152602001908152602001600020549050818114612ec5576000600860008673ffffffffffffffffffffffffffffffffffffffff1673ffffffffffffffffffffffffffffffffffffffff168152602001908152602001600020600084815260200190815260200160002054905080600860008773ffffffffffffffffffffffffffffffffffffffff1673ffffffffffffffffffffffffffffffffffffffff168152602001908152602001600020600084815260200190815260200160002081905550816009600083815260200190815260200160002081905550505b6009600084815260200190815260200160002060009055600860008573ffffffffffffffffffffffffffffffffffffffff1673ffffffffffffffffffffffffffffffffffffffff16815260200190815260200160002060008381526020019081526020016000206000905550505050565b60006001600a80549050612f4a9190613f03565b90506000600b60008481526020019081526020016000205490506000600a8381548110612fa0577f4e487b7100000000000000000000000000000000000000000000000000000000600052603260045260246000fd5b9060005260206000200154905080600a8381548110612fe8577f4e487b7100000000000000000000000000000000000000000000000000000000600052603260045260246000fd5b906000526020600020018190555081600b600083815260200190815260200160002081905550600b600085815260200190815260200160002060009055600a80548061305d577f4e487b7100000000000000000000000000000000000000000000000000000000600052603160045260246000fd5b6001900381819060005260206000200160009055905550505050565b600061308483610ce8565b905081600860008573ffffffffffffffffffffffffffffffffffffffff1673ffffffffffffffffffffffffffffffffffffffff168152602001908152602001600020600083815260200190815260200160002081905550806009600084815260200190815260200160002081905550505050565b600061310b61310684613dae565b613d89565b90508281526020810184848401111561312357600080fd5b61312e848285613fb5565b509392505050565b600081359050613145816148f0565b92915050565b60008135905061315a81614907565b92915050565b60008135905061316f8161491e565b92915050565b60008135905061318481614935565b92915050565b60008151905061319981614935565b92915050565b600082601f8301126131b057600080fd5b81356131c08482602086016130f8565b91505092915050565b6000813590506131d88161494c565b92915050565b6000602082840312156131f057600080fd5b60006131fe84828501613136565b91505092915050565b6000806040838503121561321a57600080fd5b600061322885828601613136565b925050602061323985828601613136565b9150509250929050565b60008060006060848603121561325857600080fd5b600061326686828701613136565b935050602061327786828701613136565b9250506040613288868287016131c9565b9150509250925092565b600080600080608085870312156132a857600080fd5b60006132b687828801613136565b94505060206132c787828801613136565b93505060406132d8878288016131c9565b925050606085013567ffffffffffffffff8111156132f557600080fd5b6133018782880161319f565b91505092959194509250565b6000806040838503121561332057600080fd5b600061332e85828601613136565b925050602061333f8582860161314b565b9150509250929050565b6000806040838503121561335c57600080fd5b600061336a85828601613136565b925050602061337b858286016131c9565b9150509250929050565b60006020828403121561339757600080fd5b60006133a584828501613160565b91505092915050565b600080604083850312156133c157600080fd5b60006133cf85828601613160565b92505060206133e085828601613136565b9150509250929050565b600080604083850312156133fd57600080fd5b600061340b85828601613160565b925050602061341c858286016131c9565b9150509250929050565b60006020828403121561343857600080fd5b600061344684828501613175565b91505092915050565b60006020828403121561346157600080fd5b600061346f8482850161318a565b91505092915050565b60006020828403121561348a57600080fd5b6000613498848285016131c9565b91505092915050565b6134aa81613f37565b82525050565b6134b981613f49565b82525050565b6134c881613f55565b82525050565b60006134d982613ddf565b6134e38185613df5565b93506134f3818560208601613fc4565b6134fc816141ba565b840191505092915050565b600061351282613dea565b61351c8185613e06565b935061352c818560208601613fc4565b613535816141ba565b840191505092915050565b600061354b82613dea565b6135558185613e17565b9350613565818560208601613fc4565b80840191505092915050565b600061357e602083613e06565b9150613589826141cb565b602082019050919050565b60006135a1602b83613e06565b91506135ac826141f4565b604082019050919050565b60006135c4601483613e06565b91506135cf82614243565b602082019050919050565b60006135e7602b83613e06565b91506135f28261426c565b604082019050919050565b600061360a603283613e06565b9150613615826142bb565b604082019050919050565b600061362d601c83613e06565b91506136388261430a565b602082019050919050565b6000613650603e83613e06565b915061365b82614333565b604082019050919050565b6000613673602483613e06565b915061367e82614382565b604082019050919050565b6000613696601983613e06565b91506136a1826143d1565b602082019050919050565b60006136b9602c83613e06565b91506136c4826143fa565b604082019050919050565b60006136dc601083613e06565b91506136e782614449565b602082019050919050565b60006136ff603883613e06565b915061370a82614472565b604082019050919050565b6000613722602a83613e06565b915061372d826144c1565b604082019050919050565b6000613745602983613e06565b915061375082614510565b604082019050919050565b6000613768602083613e06565b91506137738261455f565b602082019050919050565b600061378b602c83613e06565b915061379682614588565b604082019050919050565b60006137ae602983613e06565b91506137b9826145d7565b604082019050919050565b60006137d1602f83613e06565b91506137dc82614626565b604082019050919050565b60006137f4602183613e06565b91506137ff82614675565b604082019050919050565b6000613817603183613e06565b9150613822826146c4565b604082019050919050565b600061383a602c83613e06565b915061384582614713565b604082019050919050565b600061385d601783613e17565b915061386882614762565b601782019050919050565b6000613880603d83613e06565b915061388b8261478b565b604082019050919050565b60006138a3603083613e06565b91506138ae826147da565b604082019050919050565b60006138c6604083613e06565b91506138d182614829565b604082019050919050565b60006138e9601183613e17565b91506138f482614878565b601182019050919050565b600061390c602f83613e06565b9150613917826148a1565b604082019050919050565b61392b81613fab565b82525050565b600061393d8285613540565b91506139498284613540565b91508190509392505050565b600061396082613850565b915061396c8285613540565b9150613977826138dc565b91506139838284613540565b91508190509392505050565b60006020820190506139a460008301846134a1565b92915050565b60006080820190506139bf60008301876134a1565b6139cc60208301866134a1565b6139d96040830185613922565b81810360608301526139eb81846134ce565b905095945050505050565b6000602082019050613a0b60008301846134b0565b92915050565b6000602082019050613a2660008301846134bf565b92915050565b60006020820190508181036000830152613a468184613507565b905092915050565b60006020820190508181036000830152613a6781613571565b9050919050565b60006020820190508181036000830152613a8781613594565b9050919050565b60006020820190508181036000830152613aa7816135b7565b9050919050565b60006020820190508181036000830152613ac7816135da565b9050919050565b60006020820190508181036000830152613ae7816135fd565b9050919050565b60006020820190508181036000830152613b0781613620565b9050919050565b60006020820190508181036000830152613b2781613643565b9050919050565b60006020820190508181036000830152613b4781613666565b9050919050565b60006020820190508181036000830152613b6781613689565b9050919050565b60006020820190508181036000830152613b87816136ac565b9050919050565b60006020820190508181036000830152613ba7816136cf565b9050919050565b60006020820190508181036000830152613bc7816136f2565b9050919050565b60006020820190508181036000830152613be781613715565b9050919050565b60006020820190508181036000830152613c0781613738565b9050919050565b60006020820190508181036000830152613c278161375b565b9050919050565b60006020820190508181036000830152613c478161377e565b9050919050565b60006020820190508181036000830152613c67816137a1565b9050919050565b60006020820190508181036000830152613c87816137c4565b9050919050565b60006020820190508181036000830152613ca7816137e7565b9050919050565b60006020820190508181036000830152613cc78161380a565b9050919050565b60006020820190508181036000830152613ce78161382d565b9050919050565b60006020820190508181036000830152613d0781613873565b9050919050565b60006020820190508181036000830152613d2781613896565b9050919050565b60006020820190508181036000830152613d47816138b9565b9050919050565b60006020820190508181036000830152613d67816138ff565b9050919050565b6000602082019050613d836000830184613922565b92915050565b6000613d93613da4565b9050613d9f8282614053565b919050565b6000604051905090565b600067ffffffffffffffff821115613dc957613dc861418b565b5b613dd2826141ba565b9050602081019050919050565b600081519050919050565b600081519050919050565b600082825260208201905092915050565b600082825260208201905092915050565b600081905092915050565b6000613e2d82613fab565b9150613e3883613fab565b9250827fffffffffffffffffffffffffffffffffffffffffffffffffffffffffffffffff03821115613e6d57613e6c6140fe565b5b828201905092915050565b6000613e8382613fab565b9150613e8e83613fab565b925082613e9e57613e9d61412d565b5b828204905092915050565b6000613eb482613fab565b9150613ebf83613fab565b9250817fffffffffffffffffffffffffffffffffffffffffffffffffffffffffffffffff0483118215151615613ef857613ef76140fe565b5b828202905092915050565b6000613f0e82613fab565b9150613f1983613fab565b925082821015613f2c57613f2b6140fe565b5b828203905092915050565b6000613f4282613f8b565b9050919050565b60008115159050919050565b6000819050919050565b60007fffffffff0000000000000000000000000000000000000000000000000000000082169050919050565b600073ffffffffffffffffffffffffffffffffffffffff82169050919050565b6000819050919050565b82818337600083830152505050565b60005b83811015613fe2578082015181840152602081019050613fc7565b83811115613ff1576000848401525b50505050565b600061400282613fab565b91506000821415614016576140156140fe565b5b600182039050919050565b6000600282049050600182168061403957607f821691505b6020821081141561404d5761404c61415c565b5b50919050565b61405c826141ba565b810181811067ffffffffffffffff8211171561407b5761407a61418b565b5b80604052505050565b600061408f82613fab565b91507fffffffffffffffffffffffffffffffffffffffffffffffffffffffffffffffff8214156140c2576140c16140fe565b5b600182019050919050565b60006140d882613fab565b91506140e383613fab565b9250826140f3576140f261412d565b5b828206905092915050565b7f4e487b7100000000000000000000000000000000000000000000000000000000600052601160045260246000fd5b7f4e487b7100000000000000000000000000000000000000000000000000000000600052601260045260246000fd5b7f4e487b7100000000000000000000000000000000000000000000000000000000600052602260045260246000fd5b7f4e487b7100000000000000000000000000000000000000000000000000000000600052604160045260246000fd5b6000601f19601f8301169050919050565b7f537472696e67733a20686578206c656e67746820696e73756666696369656e74600082015250565b7f4552433732315061757361626c653a20746f6b656e207472616e73666572207760008201527f68696c6520706175736564000000000000000000000000000000000000000000602082015250565b7f5061757361626c653a206e6f7420706175736564000000000000000000000000600082015250565b7f455243373231456e756d657261626c653a206f776e657220696e646578206f7560008201527f74206f6620626f756e6473000000000000000000000000000000000000000000602082015250565b7f4552433732313a207472616e7366657220746f206e6f6e20455243373231526560008201527f63656976657220696d706c656d656e7465720000000000000000000000000000602082015250565b7f4552433732313a20746f6b656e20616c7265616479206d696e74656400000000600082015250565b7f4552433732315072657365744d696e7465725061757365724175746f49643a2060008201527f6d75737420686176652070617573657220726f6c6520746f2070617573650000602082015250565b7f4552433732313a207472616e7366657220746f20746865207a65726f2061646460008201527f7265737300000000000000000000000000000000000000000000000000000000602082015250565b7f4552433732313a20617070726f766520746f2063616c6c657200000000000000600082015250565b7f4552433732313a206f70657261746f7220717565727920666f72206e6f6e657860008201527f697374656e7420746f6b656e0000000000000000000000000000000000000000602082015250565b7f5061757361626c653a2070617573656400000000000000000000000000000000600082015250565b7f4552433732313a20617070726f76652063616c6c6572206973206e6f74206f7760008201527f6e6572206e6f7220617070726f76656420666f7220616c6c0000000000000000602082015250565b7f4552433732313a2062616c616e636520717565727920666f7220746865207a6560008201527f726f206164647265737300000000000000000000000000000000000000000000602082015250565b7f4552433732313a206f776e657220717565727920666f72206e6f6e657869737460008201527f656e7420746f6b656e0000000000000000000000000000000000000000000000602082015250565b7f4552433732313a206d696e7420746f20746865207a65726f2061646472657373600082015250565b7f4552433732313a20617070726f76656420717565727920666f72206e6f6e657860008201527f697374656e7420746f6b656e0000000000000000000000000000000000000000602082015250565b7f4552433732313a207472616e73666572206f6620746f6b656e2074686174206960008201527f73206e6f74206f776e0000000000000000000000000000000000000000000000602082015250565b7f4552433732314d657461646174613a2055524920717565727920666f72206e6f60008201527f6e6578697374656e7420746f6b656e0000000000000000000000000000000000602082015250565b7f4552433732313a20617070726f76616c20746f2063757272656e74206f776e6560008201527f7200000000000000000000000000000000000000000000000000000000000000602082015250565b7f4552433732313a207472616e736665722063616c6c6572206973206e6f74206f60008201527f776e6572206e6f7220617070726f766564000000000000000000000000000000602082015250565b7f455243373231456e756d657261626c653a20676c6f62616c20696e646578206f60008201527f7574206f6620626f756e64730000000000000000000000000000000000000000602082015250565b7f416363657373436f6e74726f6c3a206163636f756e7420000000000000000000600082015250565b7f4552433732315072657365744d696e7465725061757365724175746f49643a2060008201527f6d7573742068617665206d696e74657220726f6c6520746f206d696e74000000602082015250565b7f4552433732314275726e61626c653a2063616c6c6572206973206e6f74206f7760008201527f6e6572206e6f7220617070726f76656400000000000000000000000000000000602082015250565b7f4552433732315072657365744d696e7465725061757365724175746f49643a2060008201527f6d75737420686176652070617573657220726f6c6520746f20756e7061757365602082015250565b7f206973206d697373696e6720726f6c6520000000000000000000000000000000600082015250565b7f416363657373436f6e74726f6c3a2063616e206f6e6c792072656e6f756e636560008201527f20726f6c657320666f722073656c660000000000000000000000000000000000602082015250565b6148f981613f37565b811461490457600080fd5b50565b61491081613f49565b811461491b57600080fd5b50565b61492781613f55565b811461493257600080fd5b50565b61493e81613f5f565b811461494957600080fd5b50565b61495581613fab565b811461496057600080fd5b5056fea26469706673582212202aeb9e03c044ae53311fb93a3716c945b9a44e4bc258333cfe16e3fa02a6a30664736f6c63430008030033",
  "linkReferences": {},
  "deployedLinkReferences": {}
}